:1000000083018B018A015E28A000030EA1008301F9
:100010000C1C0E285F0885000C10C0168B1C3B289A
:1000200005191928B03081000B118B1083160117A8
:100030003B2803140B190310A70DA60DA50DA40D45
:10004000A30DA20DC0302304FF3A031D4028F83051
:100050002405F03A031D3828271C382840142708A7
:10006000AC002608AB002508AA002408A900A301BB
:100070008B1083160113210E8300A00E200E0900A1
:10008000A217220F3828F0302305E03A031D382844
:100090004014C0152708AC002608AB002508AA00AC
:1000A0002408A9002308A800382882070134023454
:1000B000043408341034203440348034850107304F
:1000C000990083160C308500FF2390003330950093
:1000D000960199018830810001308C0083128C01D7
:1000E00001309000203084008001840A60300406D2
:1000F000031D74287D30C7005610D0308B00963019
:10010000D000D100C201C301C401AD01CE22371815
:10011000EB224018A821C01ACD2064008928C01302
:100120005618B22831088038371904382B06F439AC
:10013000031D4F2A2A083F393006031D4F2A2B087A
:100140000B3982074F2A4F2A4F2A4F2A4F2A4F2A0C
:100150004F2A4F2A2A2A2F2A342A392A4F2A4F2A4D
:100160004F2A4F2AAB1F4F2A85012A083F39B0007A
:10017000C100003052232B0E0739B100B10E073AEF
:10018000C100083052232B1D37112B1937153708A2
:10019000C10021305223FC209F28C0120B1AD62800
:1001A000A701A601A501A401A3010B16440882071B
:1001B000E028ED280C29C401C401C401C401C40114
:1001C0003608003CD400D5015008252142180B12F6
:1001D000421885161014C40A452951082521C21851
:1001E0000B12C21805161014C40A46298519FF28D7
:1001F000C70B0800561C04295610EB2208007D305E
:1002000056180A30C700080056149630D000D100A6
:100210003330C500C2000800101054088F00550884
:100220008E001014C4015008963C56180310031C8D
:100230005F1403185F105108963C56180310031CF6
:10024000DF140318DF107721F62810108F01C80083
:100250008E008E0D8F0D8E0D8F0D8E0D8F0DF83043
:100260008E0548088E0703188F0A8E0703188F0A19
:100270000E08D5070318D40A0F08D4078E098F0972
:1002800001308E0703188F0A08000800421C08007E
:100290004318612945185B29BC0B51293808BC005B
:1002A000D0033209013E963E5006031D080004307B
:1002B000BC0045140800BC0B080045104210431454
:1002C000080045187129BC0B68293808BC00D00A01
:1002D000963032075006031D08000430BC00451458
:1002E0000800BC0B08004510421043100800C21C57
:1002F0000800C3189229C5188C29BD0B822939081A
:10030000BD00D1033309013E963E5106031D08008E
:100310000430BD00C5140800BD0B0800C510C21094
:10032000C3140800C518A229BD0B99293908BD00BE
:10033000D10A963033075106031D08000430BD0072
:10034000C5140800BD0B0800C510C210C31008007A
:1003500040100B12C019D029A90CAA0CAB0CAC0C84
:10036000031C4F2AA90CAA0CAB0C03184F2AA90C8A
:10037000AA0C03184F2A2A082B062C06031D4F2A05
:100380002A080319472AF039703A0319522A2A0811
:10039000C039803A03198F282A0F4F2A0B160800FC
:1003A000C011A80CA90CAA0CAB0CAC0C031C4F2A56
:1003B000A80CA90CAA0CAB0C03184F2AA80CA90C6A
:1003C000AA0C03184F2AA80CA90C03184F2A2908B5
:1003D0002A062B062C06031D4F2A2908F039703AED
:1003E000031D4F2AC01F992A401F972A40132B082C
:1003F000C1002918A92A2A080323C018A92AA91963
:10040000032A291DA92A291D0F2AA91D902A40194E
:100410009C2A5223AB2240134010CE22A92A4C23FF
:10042000C1004130840007302B0555202B1E202AA7
:10043000AB198004FF3AAB1D80052A080323FF296E
:1004400000050319262AAB19942AA92AAB1D942A60
:10045000A92A4F2A431C42143808BC003E2A4318DC
:1004600042143808BC003E2AC31CC2143908BD001F
:100470003E2AC318C2143908BD003E2AC0130B1609
:10048000371C080043094206C1007F30522B2B085D
:10049000031D4F2A4013C01785010B160800C01317
:1004A0000B160800C01F992A401F972A40132B08DB
:1004B000C1002A08F739753A0319722A013A03195B
:1004C000702A023A0319802A013A0319842A2A0859
:1004D00003392D070323C018A92AAA1D902A882AA8
:1004E0001C306D2AAA1D7A2AAB03AB0D2B0DFC39EB
:1004F000AD00A92AAB03AB0D2B0DFC392D06922ABA
:100500000630AA1D902AA92A0730AA1D902A9F2AE0
:1005100040199C2A5223AB2240134010CE22A92A14
:100520004C232B06031DA92AAB224013A92A4017EE
:10053000A92AC0134013A92A073A031DA92A21306A
:100540002B06031DA92A2B23AB2240134010CE22D9
:10055000A92A0B160800C80110308500C80FAE2A62
:1005600030308500C80FB22A20308500C80FB62A67
:1005700000308500C80FBA2A10308500C80FBE2A87
:1005800030308500C80FC22A20308500C80FC62A27
:1005900000308500C80FCA2A8501080000304C23AE
:1005A000B00008304C23B100B10E31097039B100F0
:1005B00002304C23B20003304C23B30022304C23D2
:1005C000B80023304C23B90020304C23B600213032
:1005D0004C23B70008007F304C23C3003208431C73
:1005E000FF3A431C013E963ED0003308C31CFF3A3D
:1005F000C31C013E963ED1001030BC00BD0033301C
:10060000C500C2000800561C292BC0104011003A3A
:1006100003190034083A03190834143A03191C3436
:100620001E3A03190234013A03190334233A031919
:100630002034013A03192134033A03192234013AD0
:10064000031923344015253A03190634013A0319D6
:100650000734C0147F340130C100003052233230DF
:10066000C10002305223033052230030C100083051
:1006700052230130C10022305223233052234E3006
:10068000C100203052238030C1001C305223013081
:10069000C10021305223080083169B001C141A0845
:1006A000831208004C2341060319080041088316F1
:1006B0009A001C158B1355309D00AA309D009C1488
:0C06C0008B171C119C18622B8312080081
:02400E00D43F9D
:104200000100FF00320032003200320014000D00C5
:104210000000FF00FF00FF00FF00FF00FF00FF00A5
:10422000FF00FF00FF00FF00FF00FF00FF00FF0096
:10423000FF00FF00FF00FF008000FF00FF00FF0005
:0C4240004E00010001000100010001001F
:104260003234533452345634323452344C34593458
:1042700046342E3443346134F1346134643461346F
:10428000323433342F34303435342F3431343734FE
:0242FE000000BE
:00000001FF
