:1000000083018B018A015E28A000030EA1008301F9
:100010000C1C0E285F0885000C10C0168B1C3B289A
:1000200005191928B03081000B118B1083160117A8
:100030003B2803140B190310A70DA60DA50DA40D45
:10004000A30DA20DC0302304FF3A031D4028F83051
:100050002405F03A031D3828271C382840142708A7
:10006000AC002608AB002508AA002408A900A301BB
:100070008B1083160113210E8300A00E200E0900A1
:10008000A217220F3828F0302305E03A031D382844
:100090004014C0152708AC002608AB002508AA00AC
:1000A0002408A9002308A800382882070134023454
:1000B000043408341034203440348034850107304F
:1000C000990083169F010C308500FF239000333088
:1000D0009500960199018830810001308C008312CF
:1000E0008C0101309000203084008001840A60304F
:1000F0000406031D75287D30C7005610D0308B00D4
:100100009630D000D100C201C301C401AD01CF229D
:100110003718EC224018A921C01ACE2064008A2882
:10012000C0135618B32831088038371904382B0605
:10013000F439031D502A2A083F393006031D502A7E
:100140002B080B398207502A502A502A502A502A4D
:10015000502A502A502A2B2A302A352A3A2A502A45
:10016000502A502A502AAB1F502A85012A083F39AD
:10017000B000C100003053232B0E0739B100B10E7F
:10018000073AC100083053232B1D37112B1937159F
:100190003708C10021305323FD20A028C0120B1ABC
:1001A000D728A701A601A501A401A3010B164408A5
:1001B0008207E128EE280D29C401C401C401C4014D
:1001C000C4013608003CD400D5015008262142184D
:1001D0000B12421885161014C40A4629510826210C
:1001E000C2180B12C21805161014C40A4729851923
:1001F0000029C70B0800561C05295610EC220800E0
:100200007D3056180A30C700080056149630D000CA
:10021000D1003330C500C2000800101054088F0010
:1002200055088E001014C4015008963C561803104F
:10023000031C5F1403185F105108963C56180310F6
:10024000031CDF140318DF107821F72810108F012A
:10025000C8008E008E0D8F0D8E0D8F0D8E0D8F0DA3
:10026000F8308E0548088E0703188F0A8E0703188A
:100270008F0A0E08D5070318D40A0F08D4078E0971
:100280008F0901308E0703188F0A08000800421CEE
:1002900008004318622945185C29BC0B522938080C
:1002A000BC00D0033209013E963E5006031D0800F3
:1002B0000430BC0045140800BC0B08004510421077
:1002C0004314080045187229BC0B69293808BC0082
:1002D000D00A963032075006031D08000430BC00D7
:1002E00045140800BC0B08004510421043100800DC
:1002F000C21C0800C3189329C5188D29BD0B83297A
:100300003908BD00D1033309013E963E5106031D55
:1003100008000430BD00C5140800BD0B0800C5105E
:10032000C210C3140800C518A329BD0B9A293908A7
:10033000BD00D10A963033075106031D0800043072
:10034000BD00C5140800BD0B0800C510C210C310C5
:10035000080040100B12C019D129A90CAA0CAB0C33
:10036000AC0C031C502AA90CAA0CAB0C0318502A85
:10037000A90CAA0C0318502A2A082B062C06031DC8
:10038000502A2A080319482AF039703A0319532AC7
:100390002A08C039803A031990282A0F502A0B16D0
:1003A0000800C011A80CA90CAA0CAB0CAC0C031CC7
:1003B000502AA80CA90CAA0CAB0C0318502AA80CA4
:1003C000A90CAA0C0318502AA80CA90C0318502A2F
:1003D00029082A062B062C06031D502A2908F03965
:1003E000703A031D502AC01F9A2A401F982A4013B2
:1003F0002B08C1002918AA2A2A080423C018AA2AEF
:10040000A919042A291DAA2A291D102AA91D912AE1
:1004100040199D2A5323AC2240134010CF22AA2A10
:100420004D23C1004130840007302B0555202B1E81
:10043000212AAB198004FF3AAB1D80052A0804234A
:10044000002A00050319272AAB19952AAA2AAB1DF1
:10045000952AAA2A502A431C42143808BC003F2A75
:10046000431842143808BC003F2AC31CC214390880
:10047000BD003F2AC318C2143908BD003F2AC0136B
:100480000B16371C080043094206C1007F30532B6E
:100490002B08031D502A4013C01785010B160800B6
:1004A000C0130B160800C01F9A2A401F982A401339
:1004B0002B08C1002A08F739753A0319732A013A43
:1004C0000319712A023A0319812A013A0319852A6C
:1004D0002A0803392D070423C018AA2AAA1D912A25
:1004E000892A1C306E2AAA1D7B2AAB03AB0D2B0D6B
:1004F000FC39AD00AA2AAB03AB0D2B0DFC392D0640
:10050000932A0630AA1D912AAA2A0730AA1D912AE9
:10051000A02A40199D2A5323AC2240134010CF2219
:10052000AA2A4D232B06031DAA2AAC224013AA2A6D
:100530004017AA2AC0134013AA2A073A031DAA2A61
:1005400021302B06031DAA2A2C23AC224013401075
:10055000CF22AA2A0B160800C80110308500C80F48
:10056000AF2A30308500C80FB32A20308500C80F6D
:10057000B72A00308500C80FBB2A10308500C80F8D
:10058000BF2A30308500C80FC32A20308500C80F2D
:10059000C72A00308500C80FCB2A8501080000302B
:1005A0004D23B00008304D23B100B10E3109703930
:1005B000B10002304D23B20003304D23B30022308E
:1005C0004D23B80023304D23B90020304D23B60011
:1005D00021304D23B70008007F304D23C30032087F
:1005E000431CFF3A431C013E963ED0003308C31C17
:1005F000FF3AC31C013E963ED1001030BC00BD0046
:100600003330C500C2000800561C2A2BC010401110
:10061000003A03190034083A03190834143A03194C
:100620001C341E3A03190234013A03190334233AE5
:1006300003192034013A03192134033A03192234EF
:10064000013A031923344015253A03190634013AB7
:1006500003190734C0147F340130C1000030532324
:100660003230C10002305323033053230030C10025
:10067000083053230130C100223053232330532349
:100680004E30C100203053238030C1001C30532332
:100690000130C10021305323080083169B001C1435
:1006A0001A08831208004D23410603190800410867
:1006B00083169A001C158B1355309D00AA309D009F
:0E06C0009C148B171C119C18632B83120800CE
:02400E00D43F9D
:104200000100FF00320032003200320014000D00C5
:104210000000FF00FF00FF00FF00FF00FF00FF00A5
:10422000FF00FF00FF00FF00FF00FF00FF00FF0096
:10423000FF00FF00FF00FF008000FF00FF00FF0005
:0C4240004E00010001000100010001001F
:104260003234533452345634323452344C34593458
:1042700046342E3443346134F1346134643461346F
:10428000323433342F34303435342F3431343734FE
:0242FE000000BE
:00000001FF
